:020000040800F2
:1000000000000220E5060008350700083507000853
:100010003507000835070008350700080000000014
:10002000000000000000000000000000350700088C
:1000300035070008000000003507000835070008F4
:1000400035070008350700083507000835070008A0
:100050003507000835070008350700083507000890
:100060003507000835070008350700083507000880
:100070003507000835070008350700083507000870
:100080003507000835070008350700083507000860
:100090003507000835070008350700083507000850
:1000A0003507000835070008350700083507000840
:1000B0003507000835070008350700083507000830
:1000C0003507000835070008350700083507000820
:1000D0003507000835070008350700083507000810
:1000E0003507000835070008350700083507000800
:1000F00035070008350700083507000835070008F0
:1001000035070008350700083507000835070008DF
:1001100035070008350700083507000835070008CF
:1001200035070008350700083507000835070008BF
:100130003507000800000000000000003507000837
:10014000350700083507000835070008350700089F
:10015000350700083507000835070008350700088F
:10016000350700083507000835070008350700087F
:1001700035070008350700083507000800000000B3
:10018000000000003507000800000000000000002B
:1001900035070008000000000000000035070008D7
:1001A000000000000000000000000000350700080B
:1001B000350700083507000835070008350700082F
:0401C00035070008F7
:1001C4000348044B834202D0034B03B118477047E2
:1001D40040040020400400200000000005480649B7
:1001E4000B1AD90F01EBA301491002D0034B03B141
:1001F400184770474004002040040020000000001D
:1002040010B5064C237843B9FFF7DAFF044B13B15A
:100214000448AFF300800123237010BD4004002084
:10022400000000004C07000808B5044B1BB104494A
:100234000448AFF30080BDE80840CFE700000000A9
:10024400440400204C070008A3F5803A704700BF1F
:10025400154B002B08BF114B9D46FFF7F5FF0021FE
:100264008B460F461148124A121A00F03BF90C4B08
:10027400002B00D098470B4B002B00D09847002050
:10028400002104000D000B4800F0D6F800F006F938
:100294002000290000F008FA00F0DAF80000080055
:1002A40000000000000000000000000040040020E6
:1002B4006004002075040008704700BF01207047E7
:1002C40008B500F0BFF8162303604FF0FF3008BDF7
:1002D40008B500F0B7F816230360FEE770B5161EE4
:1002E40007DD0C468D19AFF3008004F8010BA5421D
:1002F400F9D1304670BD00BF70B5161E07DD0C463F
:100304008D1914F8010BAFF30080A542F9D13046E2
:1003140070BD00BF4FF0FF30704700BF4FF4005373
:100324004B600020704700BF0120704700207047D9
:100334000EB44FF0FF3003B0704700BF08B500F0B3
:1003440081F80A2303604FF0FF3008BD08B500F0C0
:1003540079F8022303604FF0FF3008BD4FF0FF30FF
:10036400704700BF4FF400534B600020704700BF3C
:1003740008B500F067F81F2303604FF0FF3008BD95
:1003840008B500F05FF80B2303604FF0FF3008BDA1
:1003940008B500F057F80C2303604FF0FF3008BD98
:1003A400E007000800000020400400204004002072
:1003B40060040020034AD2F8883043F47003C2F882
:1003C4008830704700ED00E0164A936803F00C0390
:1003D400042B0CD0082B0CD0134B124A13489268F0
:1003E4001349C2F30312825CD3400B607047114B74
:1003F400F3E75368516813F4800F01F03F01536829
:1004040014BF0C4A084AB2FBF1F1064A5268C2F31F
:100414000142C3F38813013201FB03F35200B3FB1F
:10042400F2F3DAE7003802400024F4008C070008F5
:100434000800002040787D01002301461A46184632
:1004440000F0A2B8014B1868704700BF10000020EC
:1004540008B50021044600F0CBF8044B1868C36BC0
:1004640003B198472046FFF733FF00BFA4070008F5
:1004740038B5084B084D5B1B9C1007D0043B1D444A
:10048400013C55F804399847002CF9D1BDE83840AF
:1004940000F062B9E0070008DC07000870B50D4EF3
:1004A4000D4D761BB61006D0002455F8043B0134DC
:1004B4009847A642F9D1094E094D761B00F046F93A
:1004C400B61006D0002455F8043B01349847A642E0
:1004D400F9D170BDD4070008D4070008DC07000870
:1004E400D4070008830730B548D0541E002A3FD0F3
:1004F400CAB2034601E0013C3AD303F8012B9D073D
:10050400F9D1032C2DD9CDB245EA05250F2C45EAA6
:10051400054536D9A4F1100222F00F0C03F1200E88
:10052400E6444FEA121C03F1100242E9045542E981
:10053400025510327245F8D10CF1010214F00C0F7F
:1005440003EB021204F00F0C13D0ACF1040323F0FC
:1005540003030433134442F8045B9342FBD10CF0CD
:1005640003042CB1CAB21C4403F8012B9C42FBD1F6
:1005740030BD64461346002CF4D1F9E70346144613
:10058400BFE71A46A446E0E770B4184C2568D5F8CE
:1005940048411CB365681F2D25DC38B9AB1C0135F7
:1005A400656044F82310002070BC704704EB850C90
:1005B4000228CCF88820D4F888614FF0010202FAAE
:1005C40005F246EA0206C4F88861CCF80831E5D1A0
:1005D400D4F88C311343C4F88C31DFE705F5A674E5
:1005E400C5F84841D6E74FF0FF30DDE7A40700081F
:1005F4002DE9F84F2B4B1F68D7F848612DED028B7E
:10060400C6B108EE100A8B464FF001084FF00009FE
:100614007468651E0ED4013406EB8404BBF1000F2C
:100624000CD0D4F800315B4508D0013D6B1CA4F11B
:100634000404F3D1BDEC028BBDE8F88F7368226823
:10064400013BAB420CBF7560C4F80090002AECD0AB
:10065400D6F88801D6F804A008FA05F101420BD1B6
:1006640090477268524513D1D7F84831B342DCD071
:100674001E46002ECCD1DDE7D6F88C0101420CD108
:10068400D4F8801018EE100A904772685245EBD0E7
:10069400D7F84861002EBBD1CCE7D4F8800090474E
:1006A400DFE700BFA40700080A4A0B49136B43F0B5
:1006B400010313630B6843F480630B600B6823F43A
:1006C40000630B604A69054B82F020024A61013BDA
:1006D400FDD1F7E700380240000002408096980000
:1006E400DFF834D00D480E490E4A002302E0D458F6
:1006F400C4500433C4188C42F9D30B4A0B4C002366
:1007040001E013600432A242FBD3FFF753FEFFF76C
:10071400C5FEFFF7C9FF704700000220000000205B
:1007240040040020E007000840040020600400208A
:10073400FEE70000024B13B10248FFF77DBE70478D
:10074400000000007504000800000000F8B500BFB8
:10075400F8BC08BC9E467047F8B500BFF8BC08BC9E
:040764009E467047F6
:100768003A3D0A3D0F3D243D323D023D053D133DD6
:100778000D3D0C3D233D113D263D013D173D083DF6
:10078800093D000000000000000000000102030411
:1007980006070809000000000102030418000020F1
:1007A8003A3D0A3D0F3D243D323D023D053D133D96
:1007B8000D3D0C3D233D113D263D013D173D083DB6
:0407C800093D0000E7
:0807CC0080FAFF7F010000002C
:0807D400390700082D0200089E
:0407DC00050200080A
:1007E000000000005C0400200024F4000000000071
:1007F000180000200000000000000000040300209A
:100800006C030020D4030020000000000000000062
:1008100000000000000000000000000000000000D8
:1008200000000000000000000000000000000000C8
:1008300000000000000000000000000000000000B8
:1008400000000000000000000000000000000000A8
:100850000000000000000000000000000000000098
:100860000000000000000000000000000000000088
:100870000000000000000000000000000000000078
:100880000000000000000000000000000000000068
:100890000000000000000000000000000000000058
:1008A00001000000000000000E33CDAB34126DE6F5
:1008B000ECDE05000B00000000000000000000005E
:1008C0000000000000000000000000000000000028
:1008D0000000000000000000000000000000000018
:1008E0000000000000000000000000000000000008
:1008F00000000000000000000000000000000000F8
:04000005080006E504
:00000001FF
